S011000053445F5043525F76322E7372656331
S11300000C9456000C9473000C9473000C947300BD
S11300100C9473000C9473000C9473000C94730090
S11300200C9473000C9473000C9473000C94730080
S11300300C9473000C9473000C9473000C94730070
S11300400C9473000C94D5060C9473000C947300F8
S11300500C9473000C9473000C9473000C94730050
S11300600C9473000C9473000C9473000C94730040
S11300700C9473000C9473000C9473000C94730030
S11300800C9473000C9473000C9473000C94730020
S11300900C9473000C9473000C9473000C94730010
S11300A00C9473000C9473000C94730011241FBE01
S11300B0CFEFDAE0DEBFCDBF12E0A0E0B1E0ECE4C8
S11300C0FCE102C005900D92AE38B107D9F723E0E8
S11300D0AEE8B2E001C01D92A031B207E1F70E9480
S11300E0C70A0C94240E0C94000081E080937E00D7
S11300F0ECE7F0E0808180648083EAE7F0E08081CF
S1130100876880830895EAE7F0E0808180648083D3
S1130110808184FFFDCFEAE7F0E080818061808305
S1130120809178002091790090E0922B0895CF92ED
S1130130DF92EF92FF926B017C0120E03AE740E00E
S113014059E40E942B0C18165CF020E031EC4BEBC8
S113015058E4C701B6010E948A0D18160CF415C59F
S113016020E031EC4BEB58E4C701B6010E942B0CA4
S113017018165CF020E43DEA4AE858E4C701B601E9
S11301800E948A0D18160CF405C520E43DEA4AE8DD
S113019058E4C701B6010E942B0C18165CF020E04D
S11301A039EF4EE458E4C701B6010E948A0D1816CF
S11301B00CF4F5C420E039EF4EE458E4C701B6016D
S11301C00E942B0C18165CF020E03AEF4BE158E447
S11301D0C701B6010E948A0D18160CF4E5C420E08C
S11301E03AEF4BE158E4C701B6010E942B0C1816F4
S11301F05CF020E039E44DEE57E4C701B6010E94FB
S11302008A0D18160CF4D5C420E039E44DEE57E4F9
S1130210C701B6010E942B0C18165CF020E03FE1E8
S113022046EB57E4C701B6010E948A0D18160CF478
S1130230C5C420E03FE146EB57E4C701B6010E9484
S11302402B0C18165CF020E83AEF4CE857E4C70191
S1130250B6010E948A0D18160CF4B5C420E83AEFD2
S11302604CE857E4C701B6010E942B0C18165CF049
S113027020E03CE04CE557E4C701B6010E948A0D3A
S113028018160CF4A5C420E03CE04CE557E4C70183
S1130290B6010E942B0C18165CF020E034E14DE20C
S11302A057E4C701B6010E948A0D18160CF495C4D0
S11302B020E034E14DE257E4C701B6010E942B0C63
S11302C018165CF020E038E249E057E4C701B601B3
S11302D00E948A0D18160CF485C420E038E249E027
S11302E057E4C701B6010E942B0C18165CF020E0FD
S11302F030EF4AED56E4C701B6010E948A0D181684
S11303000CF475C420E030EF4AED56E4C701B601A1
S11303100E942B0C18165CF020E030EF4FEA56E4F4
S1130320C701B6010E948A0D18160CF465C420E0BA
S113033030EF4FEA56E4C701B6010E942B0C1816A1
S11303405CF020E030E54EE856E4C701B6010E94B7
S11303508A0D18160CF454C420E030E54EE856E437
S1130360C701B6010E942B0C18165CF020E03CEA91
S113037047E656E4C701B6010E948A0D18160CF42C
S113038044C420E03CEA47E656E4C701B6010E94B3
S11303902B0C18165CF020E038EB4DE356E4C70153
S11303A0B6010E948A0D18160CF434C420E038EB10
S11303B04DE356E4C701B6010E942B0C18160CF449
S11303C057C020E030E44CE156E4C701B6010E9476
S11303D08A0D18160CF04CC026E636E047E356E4C6
S11303E0C701B6010E948A0D18160CF418C426E63B
S11303F036E047E356E4C701B6010E942B0C1816F9
S11304005CF02DEC34E540E356E4C701B6010E94EC
S11304108A0D18160CF408C42DEC34E540E356E4B8
S1130420C701B6010E942B0C18165CF023E333EAD3
S113043049E256E4C701B6010E948A0D18160CF46D
S1130440F8C323E333EA49E256E4C701B6010E9444
S11304502B0C18160CF451C42AE931EF42E256E48D
S1130460C701B6010E948A0D18160CF046C4E6C3F3
S113047020E030E44CE156E4C701B6010E942B0CA5
S113048018160CF457C023E337E641E056E4C701DD
S1130490B6010E948A0D18160CF04CC021E731EE0B
S11304A046E156E4C701B6010E948A0D18160CF401
S11304B0CAC321E731EE46E156E4C701B6010E9402
S11304C02B0C18165CF021EE32E841E156E4C7012A
S11304D0B6010E948A0D18160CF4BAC321EE32E854
S11304E041E156E4C701B6010E942B0C18165CF0DA
S11304F022E534E24CE056E4C701B6010E948A0DBD
S113050018160CF4AAC322E534E24CE056E4C70101
S1130510B6010E942B0C18160CF4FEC323EC35EC28
S113052046E056E4C701B6010E948A0D18160CF085
S1130530F3C398C323E337E641E056E4C701B601A9
S11305400E942B0C1816FCF023E33BE747ED55E41F
S1130550C701B6010E948A0D1816ACF4A7019601D2
S113056063E377E681E096E40E94BE0B27ED33EA6D
S11305704AE853E40E94300C20E030E040EF51E4BC
S11305800E94BF0BD7C323E33BE747ED55E4C70104
S1130590B6010E942B0C1816FCF026E632E544EB5B
S11305A055E4C701B6010E948A0D1816ACF4A701E0
S11305B0960163E37BE787ED95E40E94BE0B2FE190
S11305C035E041E653E40E94300C20E030E04CE09A
S11305D052E40E94BF0BAEC326E632E544EB55E479
S11305E0C701B6010E942B0C1816FCF020E034EA77
S11305F047E955E4C701B6010E948A0D1816ACF408
S1130600A701960166E672E584EB95E40E94BE0BB1
S11306102CE53FE847E353E40E94300C20E030E04F
S113062040E252E40E94BF0B85C320E034EA47E96C
S113063055E4C701B6010E942B0C1816FCF020E00B
S113064030E240E855E4C701B6010E948A0D18164D
S1130650ACF4A701960160E074EA87E995E40E948E
S1130660BE0B20E030E846E153E40E94300C20E069
S113067030E044E352E40E94BF0B5CC320E030E26C
S113068040E855E4C701B6010E942B0C1816FCF093
S11306902DEC3CE749E555E4C701B6010E948A0DFB
S11306A01816ACF4A701960160E070E280E895E4C6
S11306B00E94BE0B2BE734E148EF52E40E94300C59
S11306C020E030E048E452E40E94BF0B33C32DEC39
S11306D03CE749E555E4C701B6010E942B0C181606
S11306E0FCF02DEC34E649E355E4C701B6010E9461
S11306F08A0D1816ACF4A70196016DEC7CE789E528
S113070095E40E94BE0B26E636E64DEC52E40E94C8
S1130710300C20E030E04CE552E40E94BF0B0AC3E9
S11307202DEC34E649E355E4C701B6010E942B0CD5
S11307301816FCF023E333EB4EE155E4C701B60190
S11307400E948A0D1816ACF4A70196016DEC74E6AC
S113075089E395E40E94BE0B2AE037ED4AEA52E4AD
S11307600E94300C20E030E040E752E40E94BF0BCE
S1130770E1C223E333EB4EE155E4C701B6010E9425
S11307802B0C1816FCF026E636E648E055E4C701C3
S1130790B6010E948A0D1816ACF4A701960163E312
S11307A073EB8EE195E40E94BE0B22E538EB4EE834
S11307B052E40E94300C20E030E042E852E40E940F
S11307C0BF0BB8C226E636E648E055E4C701B601D9
S11307D00E942B0C1816FCF020E030E64BEE54E49B
S11307E0C701B6010E948A0D1816ACF4A701960140
S11307F066E676E688E095E40E94BE0B2FE135E8D4
S11308004FE652E40E94300C20E030E04CE852E421
S11308100E94BF0B8FC220E030E64BEE54E4C701C8
S1130820B6010E942B0C1816FCF026E636ED4BECB4
S113083054E4C701B6010E948A0D1816ACF4A7014E
S1130840960160E070E68BEE94E40E94BE0B2AE011
S113085037ED49E452E40E94300C20E030E046E9F0
S113086052E40E94BF0B66C226E636ED4BEC54E41C
S1130870C701B6010E942B0C1816FCF02DEC3CE2CB
S113088041EB54E4C701B6010E948A0D1816ACF47A
S1130890A701960166E676ED8BEC94E40E94BE0B0C
S11308A027ED33EA4AE252E40E94300C20E030E0C3
S11308B040EA52E40E94BF0B3DC22DEC3CE241EB06
S11308C054E4C701B6010E942B0C1816FCF026E66E
S11308D036E84AE954E4C701B6010E948A0D1816A5
S11308E0ACF4A70196016DEC7CE281EB94E40E94E8
S11308F0BE0B23EC35EF40E152E40E94300C20E0C3
S113090030E04AEA52E40E94BF0B14C226E636E8FD
S11309104AE954E4C701B6010E942B0C1816FCF0F6
S11309202AE939E347E854E4C701B6010E948A0D75
S11309301816ACF4A701960166E676E88AE994E411
S11309400E94BE0B2DE33AE047EF51E40E94300CC5
S113095020E030E044EB52E40E94BF0BEBC12AE9F3
S113096039E347E854E4C701B6010E942B0C18167A
S1130970FCF028EB3EE64DE654E4C701B6010E94C4
S11309808A0D1816ACF4A70196016AE979E387E8A1
S113099094E40E94BE0B2FED3FE443ED51E40E942A
S11309A0300C20E030E04EEB52E40E94BF0BC2C199
S11309B028EB3EE64DE654E4C701B6010E942B0C39
S11309C018165CF02AE939E141E554E4C701B6019F
S11309D00E948A0D18160CF44AC12AE939E141E54E
S11309E054E4C701B6010E942B0C18165CF027EDE5
S11309F033EB48E354E4C701B6010E948A0D18168C
S1130A000CF43AC127ED33EB48E354E4C701B601D3
S1130A100E942B0C18165CF020E030EA43E254E408
S1130A20C701B6010E948A0D18160CF42AC120E0F1
S1130A3030EA43E254E4C701B6010E942B0C1816B5
S1130A405CF029E23CE541E154E4C701B6010E94AF
S1130A508A0D18160CF41AC129E23CE541E154E46C
S1130A60C701B6010E942B0C18165CF029E23CE782
S1130A7041E054E4C701B6010E948A0D18160CF433
S1130A800AC129E23CE741E054E4C701B6010E94EF
S1130A902B0C18165CF025E83BE447EE53E4C70141
S1130AA0B6010E948A0D18160CF4FAC025E83BE43E
S1130AB047EE53E4C701B6010E942B0C18165CF0F4
S1130AC02AE939E14FEC53E4C701B6010E948A0DCB
S1130AD018160CF4EAC02AE939E14FEC53E4C701D3
S1130AE0B6010E942B0C18165CF02FE135EE49EB91
S1130AF053E4C701B6010E948A0D18160CF4DAC03B
S1130B002FE135EE49EB53E4C701B6010E942B0CEB
S1130B1018165CF028E431E447EA53E4C701B6014F
S1130B200E948A0D18160CF4CAC028E431E447EA7E
S1130B3053E4C701B6010E942B0C18165CF02BE796
S1130B4034ED46E953E4C701B6010E948A0D181634
S1130B500CF4BAC02BE734ED46E953E4C701B601FF
S1130B600E942B0C18160CF4B4C02CEE31E548E8A6
S1130B7053E4C701B6010E948A0D18160CF0AEC0EA
S1130B8060E070E086E193E4D5C060E070E08CE55D
S1130B9092ECD0C060E070E088E492ECCBC060E0FE
S1130BA070E084E392ECC6C060E070E080E292EC16
S1130BB0C1C060E070E08CE092ECBCC060E070E02A
S1130BC080EF91ECB7C060E070E088EC91ECB2C0CB
S1130BD060E070E080EA91ECADC060E070E080E736
S1130BE091ECA8C060E070E080E291ECA3C060E00A
S1130BF070E080EA90EC9EC060E070E0CB019AC0A7
S1130C0060E070E080EA90E495C060E070E080E22B
S1130C1091E490C060E070E080E791E48BC060E014
S1130C2070E080EA91E486C060E070E088EA91E4D4
S1130C3081C060E070E080EB91E47CC060E070E033
S1130C4088EB91E477C060E070E088EC91E472C0D6
S1130C5060E070E080ED91E46DC060E070E088EDEC
S1130C6091E468C060E070E080EE91E463C060E00D
S1130C7070E088EC92E45EC060E070E082ED92E4A3
S1130C8059C060E070E08CED92E454C060E070E024
S1130C9086EE92E44FC060E070E080EF92E44AC0D8
S1130CA060E070E08AEF92E445C060E070E082E0CA
S1130CB093E440C060E070E087E093E43BC060E010
S1130CC070E08CE093E436C060E070E081E193E48E
S1130CD031C060E070E080E893E42CC060E070E034
S1130CE080E893E427C060E070E080E893E422C0E9
S1130CF060E070E080E893E41DC02AE931EF42E24D
S1130D0056E4C701B6010E942B0C181664F360E088
S1130D1070E080EC91E40EC023EC35EC46E056E440
S1130D20C701B6010E942B0C181614F360E070E0A2
S1130D3088EE91E4FF90EF90DF90CF9008958F922A
S1130D409F92AF92BF92CF92DF92EF92FF9224E2F2
S1130D503EE54EE95BE30E948F0D6B017C0120E0D0
S1130D6030E44CE156EC0E948F0D4B015C0120E015
S1130D7030E040EA50E4C701B6010E94BE0B9B017B
S1130D80AC01C501B4010E94300C0E94970020E020
S1130D9030E0A9010E94BF0BFF90EF90DF90CF904D
S1130DA0BF90AF909F908F9008951F920F920FB6AF
S1130DB00F9211248F939F938091920290919302AA
S1130DC00196909393028093920281E090E0909335
S1130DD091028093900280918E0290918F020196ED
S1130DE090938F0280938E029F918F910F900FBEEC
S1130DF00F901F90189584B18E6084B980B380BB26
S1130E00569A08952F923F924F925F926F927F92DB
S1130E108F929F92AF92BF92CF92DF92EF92FF9206
S1130E200F931F93CF93DF93CDB7DEB72E970FB6F3
S1130E30F894DEBF0FBECDBF3C012B0180E091E0F2
S1130E400E947F0B109293021092920210928F02D2
S1130E5010928E02440C551C212C312C19861A86B2
S1130E601B861C8610E0E12CF12C00E0C301A0E0FD
S1130E70B0E08D839E83AF83B887C3013201EE86D1
S1130E80FD862C0122C10E948300BC0180E090E019
S1130E900E94D80C0E949F066B017C01AFE9BFE061
S1130EA01197F1F700C000006D817E818F819885D4
S1130EB00E94D80C4B015C0120E030E040E05FE38D
S1130EC00E94BE0B9B01AC01C701B6010E942B0C12
S1130ED0882364F5A7019601C501B4010E94BE0BE5
S1130EE069837A838B839C839B01AC0160E070E00F
S1130EF080E293E40E94BE0B0E94A90C67BD85B1F9
S1130F00877F85B985B9B6E54B16510408F443C00B
S1130F1029813A814B815C8160E070E080E093E458
S1130F200E94BE0B0E94A90C67BD35C020E030E0D2
S1130F3040E05FE3C501B4010E94BF0B9B01AC011B
S1130F40C701B6010E948A0D18169CF4EFEFE7BDA5
S1130F5085B1886085B985B920E030E044EB52E47E
S1130F60C701B6010E948A0D1816ACF4F0EFF7BD64
S1130F7012C085B1877F85B985B980EC87BD96E5B8
S1130F804916510410F0A8E7A7BDBCE34B16510461
S1130F9010F4EFEFE7BD8091900290919102892BBC
S1130FA079F4A7019601612F7E858D85902F0E948B
S1130FB0BF0B162F7E878D87092FFFEF2F1A3F0A4D
S1130FC08091900290919102019709F05DC0B10166
S1130FD0330C880B990B0E94DA0C9B01AC01612F36
S1130FE07E858D85902F0E94300C69877A878B8748
S1130FF09C87109291021092900220E030E040E22F
S113100051E40E948F0D20E030E040E251E40E9460
S1131010300C6B017C0120E030E040EC5FE3C50163
S1131020B4010E94BF0B9B01AC01C701B6010E9431
S11310308A0D882384F420E030E040EC5FE3C501AE
S1131040B4010E94BE0B9B01AC01C701B6010E9412
S11310502B0C18167CF010929302109292028BB112
S11310608F7B8BB98BB9212C312C10E01E861D8609
S113107000E00AC08BB180648BB98BB9212C312C70
S113108010E01E861D8600E080918E0290918F02F2
S11310900497D9F482E191E00E947F0B69857A85F7
S11310A08B859C850E94A20CCB010E94950B8BE141
S11310B091E00E947F0BC2010E94950B8AE00E947E
S11310C06A0B10928F0210928E028091920290917C
S11310D093028615970508F4D6CE8FEF87BD85B1A8
S11310E0877F85B985B92E960FB6F894DEBF0FBEFB
S11310F0CDBFDF91CF911F910F91FF90EF90DF90C3
S1131100CF90BF90AF909F908F907F906F905F90A3
S11311104F903F902F900895EF92FF920F931F935B
S1131120CF93DF9308E912E026EB32E0F80180E385
S11311308193E217F307E1F780E391E00E947F0BCC
S11311402FEF87EA91E6215080409040E1F700C0FC
S1131150000081E591E00E947F0B0F2EF8E9EF2E4D
S1131160F2E0FF2EF02D0E94720BC82F0E946A0B32
S1131170F701C1937F01CA32B1F78AE00E946A0B7A
S1131180FFEF23E284EFF15020408040E1F700C0FC
S113119000008CE591E00E947F0B9FEFE7EAF1E607
S11311A09150E040F040E1F700C00000C0EBD2E015
S11311B0F80181918F010E946A0B0C171D07C1F77A
S11311C08AE00E946A0BFFEF23E284EFF150204093
S11311D08040E1F700C00000DF91CF911F910F9193
S11311E0FF90EF900895EF92FF920F931F93CF9388
S11311F0DF9388E691E00E947F0B2FEF8BE792E963
S1131200215080409040E1F700C00000C8E9D2E0DE
S113121000EB12E089910E946A0BC017D107D1F745
S11312208AE00E946A0B2FEF87EA91E62150804002
S11312309040E1F700C00000C8E9D2E0E880F980FE
S11312400A8180ED8E0D14E69F2D990F9056292F5B
S1131250220F220F920F819F900D1124900F905313
S11312609093B3028AE791E00E947F0B8E2D0E9437
S11312706A0B8F2D0E946A0B802F0E946A0B8AE0F2
S11312800E946A0B2FEF87EA91E62150804090403C
S1131290E1F700C00000EB80FC800D8180ED8E0D35
S11312A09F2D990F9056292F220F220F920F819F65
S11312B0900D1124900F9053909395028BE891E038
S11312C00E947F0B8E2D0E946A0B8F2D0E946A0B49
S11312D0802F0E946A0B8AE00E946A0B2FEF87EA34
S11312E091E6215080409040E1F700C00000EE807C
S11312F0FF80088580ED8E0D9F2D990F9056292F24
S1131300220F220F920F819F900D1124900F905362
S11313109093B2028CE991E00E947F0B8E2D0E9483
S11313206A0B8F2D0E946A0B802F0E946A0B8AE041
S11313300E946A0B2FEF87EA91E62150804090408B
S1131340E1F700C00000E984FA840B8580ED8E0D7E
S11313509F2D990F9056292F220F220F920F819FB4
S1131360900D1124900F90539093940280EB91E090
S11313700E947F0B8E2D0E946A0B8F2D0E946A0B98
S1131380802F0E946A0B8AE00E946A0B2FEF87EA83
S113139091E6215080409040E1F700C00000EC84C9
S11313A0FD840E8580ED8E0D9F2D990F9056292F6B
S11313B0220F220F920F819F900D1124900F9053B2
S11313C09093B10284EC91E00E947F0B8E2D0E94D9
S11313D06A0B8F2D0E946A0B802F0E946A0B8AE091
S11313E00E946A0B2FEF87EA91E6215080409040DB
S11313F0E1F700C00000EF84F888098980ED8E0DC4
S11314009F2D990F9056292F220F220F920F819F03
S1131410900D1124900F90539093B50287ED91E0B5
S11314200E947F0B8E2D0E946A0B8F2D0E946A0BE7
S1131430802F0E946A0B8AE00E946A0B2FEF87EAD2
S113144091E6215080409040E1F700C00000EA8816
S1131450FB880C8980ED8E0D9F2D990F9056292FB6
S1131460220F220F920F819F900D1124900F905301
S11314709093B4028AEE91E00E947F0B8E2D0E941D
S11314806A0B8F2D0E946A0B802F0E946A0B8AE0E0
S11314900E946A0B2FEF87EA91E62150804090402A
S11314A0E1F700C00000FD880E89CF8980ED8F0D23
S11314B0902F990F9056292F220F220F920F819F60
S11314C0900D11249C0F9053909397028EEF91E00E
S11314D00E947F0B8F2D0E946A0B802F0E946A0B43
S11314E08C2F0E946A0B8AE00E946A0B2FEF87EA16
S11314F091E6215080409040E1F700C00000DF9168
S1131500CF911F910F91FF90EF900895CF93DF93A8
S1131510C0E0D0E082E192E00E947F0BCE010E9405
S1131520950B8AE00E946A0B609194028091B2024A
S113153070E090E00E9402076091B5028091B102D0
S113154070E090E00E940207609197028091B402DB
S113155070E090E00E9402072196CE31D105D1F6C9
S1131560DF91CF910895E1E6F0E080E88083108276
S11315700E942F0B0E94480B0E9475000E94550B7D
S11315800E94FB0615B811BA1BB8789408950E94FE
S1131590B30A8CE192E00E947F0B2FEF83ED90E37E
S11315A0215080409040E1F700C000000E948C0868
S11315B0C1E00F2EFEECEF2EF12CF02DDEE702E061
S11315C01AE08DE292E00E947F0BEFEFF7EA21E64A
S11315D0E150F0402040E1F700C0000082E492E0D6
S11315E00E947F0B8FEF97EAE1E681509040E04044
S11315F0E1F700C00000C13019F0C23021F1E1CFA1
S11316000E94F30887E592E00E947F0BFFEF23ED31
S113161080E3F15020408040E1F700C00000F70172
S1131620D0838D2F0E946A0B8BE692E00E947F0B81
S1131630FFEF23ED80E3F15020408040E1F700C04C
S11316400000C02FBECF84E792E00E947F0B0E946F
S1131650860A8EE792E00E947F0BC12FB2CFE0E8AA
S1131660F0E080818083E1E8F0E080818C60808319
S1131670EFE6F0E080818260808380E19AE79093D6
S11316808900809388001092850010928400089548
S113169083EC84BD85E085BD84B1806884B994B150
S11316A0892B84B98FEF87BD08951092CD0087E60A
S11316B08093CC0088E18093C90086E08093CA00BF
S11316C0E6EBF2E020E133E080E38193E217F307F5
S11316D0E1F70895E8ECF0E0908195FFFDCF809369
S11316E0CE000895E8ECF0E080818823ECF7569A68
S11316F09BB180E489278BB98091CE0008950F9324
S11317001F93CF93FC018081882359F08F01C0E09F
S11317100E946A0BCF5FF801EC0FF11D80818111EB
S1131720F7CFCF911F910F910895CF93DF939C0131
S113173064E670E00E94FC0DAB016CE96403E00117
S1131740659FD00D1124C20FD31FCE016AE070E053
S11317500E94FC0DD62F80E3840F0E946A0B80E365
S11317608D0F0E946A0B8C2F9AE0D99F8019112447
S1131770805D0E946A0BDF91CF9108955058BB277A
S1131780AA270E94D60B0C94500D0E94420D38F0EB
S11317900E94490D20F039F49F3F19F426F40C946B
S11317A03F0D0EF4E095E7FB0C94390DE92F0E94F0
S11317B0610D58F3BA17620773078407950720F081
S11317C079F4A6F50C94830D0EF4E0950B2EBA2F44
S11317D0A02D0B01B90190010C01CA01A001112433
S11317E0FF27591B99F0593F50F4503E68F11A16DF
S11317F0F040A22F232F342F4427585FF3CF469570
S113180037952795A795F0405395C9F77EF41F1691
S1131810BA0B620B730B840BBAF09150A1F0FF0F5B
S1131820BB1F661F771F881FC2F70EC0BA0F621F47
S1131830731F841F48F4879577956795B795F79537
S11318409E3F08F0B0CF9395880F08F09927EE0FCC
S11318509795879508950E94150D08F481E00895E1
S11318600E94440C0C94500D0E94490D58F00E94A3
S1131870420D40F029F45F3F29F00C94390D5111C9
S11318800C94840D0C943F0D0E94610D68F3992310
S1131890B1F3552391F3951B550BBB27AA27621768
S11318A07307840738F09F5F5F4F220F331F441F75
S11318B0AA1FA9F335D00E2E3AF0E0E832D09150A9
S11318C05040E695001CCAF72BD0FE2F29D0660F96
S11318D0771F881FBB1F261737074807AB07B0E8D9
S11318E009F0BB0B802DBF01FF2793585F4F3AF0DF
S11318F09E3F510578F00C94390D0C94840D5F3F94
S1131900E4F3983ED4F3869577956795B795F79564
S11319109F5FC9F7880F911D9695879597F908954C
S1131920E1E0660F771F881FBB1F621773078407E8
S1131930BA0720F0621B730B840BBA0BEE1F88F7F7
S1131940E09508950E94A90C6894B1110C94840D3B
S113195008950E94690D88F09F5798F0B92F992730
S1131960B751B0F0E1F0660F771F881F991F1AF086
S1131970BA95C9F714C0B13091F00E94830DB1E05B
S113198008950C94830D672F782F8827B85F39F05A
S1131990B93FCCF3869577956795B395D9F73EF41F
S11319A090958095709561957F4F8F4F9F4F0895C7
S11319B0E89409C097FB3EF49095809570956195E5
S11319C07F4F8F4F9F4F9923A9F0F92F96E9BB279B
S11319D09395F695879577956795B795F111F8CF17
S11319E0FAF4BB0F11F460FF1BC06F5F7F4F8F4F82
S11319F09F4F16C0882311F096E911C0772321F078
S1131A009EE8872F762F05C0662371F096E8862F0F
S1131A1070E060E02AF09A95660F771F881FDAF766
S1131A20880F9695879597F90895990F0008550F93
S1131A30AA0BE0E8FEEF16161706E807F907C0F050
S1131A4012161306E407F50798F0621B730B840B58
S1131A50950B39F40A2661F0232B242B252B21F432
S1131A6008950A2609F4A140A6958FEF811D811DD2
S1131A70089597F99F6780E870E060E008959FEF0C
S1131A8080EC089500240A94161617061806090611
S1131A90089500240A9412161306140605060895E0
S1131AA0092E0394000C11F4882352F0BB0F40F468
S1131AB0BF2B11F460FF04C06F5F7F4F8F4F9F4FA8
S1131AC0089557FD9058440F551F59F05F3F71F02A
S1131AD04795880F97FB991F61F09F3F79F0879591
S1131AE00895121613061406551FF2CF4695F1DF1A
S1131AF008C0161617061806991FF1CF86957105AA
S1131B00610508940895E894BB2766277727CB01DD
S1131B1097F908950E94150D08F48FEF08950E9417
S1131B20A20D0C94500D0E94420D38F00E94490DF4
S1131B3020F0952311F00C94390D0C943F0D1124D1
S1131B400C94840D0E94610D70F3959FC1F3950F61
S1131B5050E0551F629FF001729FBB27F00DB11D2D
S1131B60639FAA27F00DB11DAA1F649F6627B00DBD
S1131B70A11D661F829F2227B00DA11D621F739FA6
S1131B80B00DA11D621F839FA00D611D221F749FB4
S1131B903327A00D611D231F849F600D211D822FFB
S1131BA0762F6A2F11249F5750409AF0F1F0882322
S1131BB04AF0EE0FFF1FBB1F661F771F881F91504F
S1131BC05040A9F79E3F510580F00C94390D0C94B8
S1131BD0840D5F3FE4F3983ED4F38695779567953B
S1131BE0B795F795E7959F5FC1F7FE2B880F911D79
S1131BF09695879597F9089597FB072E16F4009408
S1131C0007D077FD09D00E94100E07FC05D03EF4E2
S1131C10909581959F4F0895709561957F4F089594
S1131C20AA1BBB1B51E107C0AA1FBB1FA617B707FE
S1131C3010F0A61BB70B881F991F5A95A9F780951A
S10F1C409095BC01CD010895F894FFCFED
S1131C4C496E20686F6C642061742074656D70201B
S1131C5C0A0054656D70206973200020616E642045
S1131C6C5461726765742074656D7020697320000B
S1131C7C456E74657265642056616C696461746543
S1131C8C20446174612046756E6374696F6E200A1A
S1131C9C00496E707574206973200A004172726178
S1131CAC792069733F200A00496E207365742061A2
S1131CBC72726179206973200A00507265686561DB
S1131CCC742074656D7020697320005072656865AA
S1131CDC61742074696D65206973200044656E61BC
S1131CEC747572696E672074656D70206973200059
S1131CFC44656E61747572696E672074696D6520D4
S1131D0C69732000416E6E65616C696E6720746541
S1131D1C6D702069732000416E6E65616C696E672D
S1131D2C2074696D652069732000456C6F6E676162
S1131D3C74696F6E2074656D702069732000456C36
S1131D4C6F6E676174696F6E2074696D6520697359
S1131D5C2000496E206379636C65200057656C63C1
S1131D6C6F6D6520746F20504352200A00507265C9
S1131D7C7373203120746F20736574205043522088
S1131D8C0A005072657373203220746F2072756E62
S1131D9C20504352200A0050435220686173206241
S1131DAC65656E207365742E200A0073656E74204D
S1131DBC7E200A0052756E20504352200A00504374
S1111DCC522066696E6973686564200A00001F
S9030000FC
